{
  "transactions": [
    {
      "hash": "0x4976bcb085f90798d4c9f1d422de0d7508f85bc71a9f9d6eb6c694b39d995535",
      "transactionType": "CREATE",
      "contractName": "StakeChoicesFactory",
      "contractAddress": "0x17fc7698a7065b41007dc270afa4aa85313e2717",
      "function": null,
      "arguments": null,
      "transaction": {
        "from": "0x281a3b958d6068b41c1e0c9c5e0d17830fc78272",
        "gas": "0x22b952",
        "value": "0x0",
        "input": "0x60a0604052348015600e575f5ffd5b506040516019906042565b604051809103905ff0801580156031573d5f5f3e3d5ffd5b506001600160a01b0316608052604f565b61183a806106a783390190565b60805161062d61007a5f395f818160530152818160d0015281816101a1015261028f015261062d5ff3fe608060405234801561000f575f5ffd5b506004361061004a575f3560e01c80635c60da1b1461004e578063c353d2ba14610091578063d2edec44146100a4578063ffb623df146100b7575b5f5ffd5b6100757f000000000000000000000000000000000000000000000000000000000000000081565b6040516001600160a01b03909116815260200160405180910390f35b61007561009f3660046104fd565b6100ca565b6100756100b2366004610548565b61019b565b6100756100c536600461059c565b61026e565b5f6100f47f00000000000000000000000000000000000000000000000000000000000000006102f7565b6040516379ccf11760e11b81529091506001600160a01b0382169063f399e22e9061012590869086906004016105b3565b5f604051808303815f87803b15801561013c575f5ffd5b505af115801561014e573d5f5f3e3d5ffd5b50505050806001600160a01b03167f645e9cc0b6633c2d425a900a1913215f5efdcaa291949130571d98b7b7c4be64848460405161018d9291906105b3565b60405180910390a292915050565b5f6101c67f000000000000000000000000000000000000000000000000000000000000000083610302565b6040516379ccf11760e11b81529091506001600160a01b0382169063f399e22e906101f790879087906004016105b3565b5f604051808303815f87803b15801561020e575f5ffd5b505af1158015610220573d5f5f3e3d5ffd5b50505050806001600160a01b03167f645e9cc0b6633c2d425a900a1913215f5efdcaa291949130571d98b7b7c4be64858560405161025f9291906105b3565b60405180910390a29392505050565b6040513060388201526f5af43d82803e903d91602b57fd5bf3ff60248201527f00000000000000000000000000000000000000000000000000000000000000006014820152733d602d80600a3d3981f3363d3d373d3d3d363d738152605881018290526037600c820120607882015260556043909101205f906001600160a01b03165b92915050565b5f6102f1825f610315565b5f61030e83835f6103ae565b9392505050565b5f814710156103455760405163cf47918160e01b8152476004820152602481018390526044015b60405180910390fd5b763d602d80600a3d3981f3363d3d373d3d3d363d730000008360601b60e81c175f526e5af43d82803e903d91602b57fd5bf38360781b176020526037600983f090506001600160a01b0381166102f15760405163b06ebf3d60e01b815260040160405180910390fd5b5f814710156103d95760405163cf47918160e01b81524760048201526024810183905260440161033c565b763d602d80600a3d3981f3363d3d373d3d3d363d730000008460601b60e81c175f526e5af43d82803e903d91602b57fd5bf38460781b17602052826037600984f590506001600160a01b03811661030e5760405163b06ebf3d60e01b815260040160405180910390fd5b80356001600160a01b0381168114610459575f5ffd5b919050565b634e487b7160e01b5f52604160045260245ffd5b5f82601f830112610481575f5ffd5b813567ffffffffffffffff81111561049b5761049b61045e565b604051601f8201601f19908116603f0116810167ffffffffffffffff811182821017156104ca576104ca61045e565b6040528181528382016020018510156104e1575f5ffd5b816020850160208301375f918101602001919091529392505050565b5f5f6040838503121561050e575f5ffd5b61051783610443565b9150602083013567ffffffffffffffff811115610532575f5ffd5b61053e85828601610472565b9150509250929050565b5f5f5f6060848603121561055a575f5ffd5b61056384610443565b9250602084013567ffffffffffffffff81111561057e575f5ffd5b61058a86828701610472565b93969395505050506040919091013590565b5f602082840312156105ac575f5ffd5b5035919050565b60018060a01b0383168152604060208201525f82518060408401528060208501606085015e5f606082850101526060601f19601f830116840101915050939250505056fea26469706673582212207987771860b86a9f735758efdd7ae4c4a49310d9b3fb17bd96660d274cd212fb64736f6c634300081e00336080604052348015600e575f5ffd5b5060156019565b60c9565b7ff0c57e16840df040f15088dc2f81fe391c3923bec73e23a9662efc9c229c6a00805468010000000000000000900460ff161560685760405163f92ee8a960e01b815260040160405180910390fd5b80546001600160401b039081161460c65780546001600160401b0319166001600160401b0390811782556040519081527fc7f505b2f371ae2175ee4913f4499e1f2633a7b5936321eed1cdaeb6115181d29060200160405180910390a15b50565b611764806100d65f395ff3fe608060405234801561000f575f5ffd5b506004361061013b575f3560e01c806372f702f3116100b4578063c4ede05011610079578063c4ede05014610324578063c87b56dd14610337578063e8a3d4851461034a578063ec590f4f14610352578063f399e22e14610365578063fe99049a14610378575f5ffd5b806372f702f314610279578063ab66d3ff146102a4578063b6363cf2146102b7578063bd85b039146102f2578063c45a015514610311575f5ffd5b80633f47e662116101055780633f47e662146101c7578063426a8493146101ec5780634e41a1fb146101ff578063558a729714610212578063598af9e7146102255780636a4274ab14610264575f5ffd5b8062ad800c1461013f578062fdd58e1461016857806301ffc9a71461018957806306fdde03146101ac578063095bcdb6146101b4575b5f5ffd5b61015261014d36600461110f565b61038b565b60405161015f9190611126565b60405180910390f35b61017b610176366004611176565b61042a565b60405190815260200161015f565b61019c61019736600461119e565b610452565b604051901515815260200161015f565b610152610486565b61019c6101c23660046111cc565b610516565b6101da6101d536600461110f565b61052d565b60405160ff909116815260200161015f565b61019c6101fa3660046111cc565b610598565b61015261020d36600461110f565b6105a5565b61019c61022036600461120c565b6105c4565b61017b610233366004611241565b6001600160a01b039283165f9081526002602090815260408083209490951682529283528381209181529152205490565b6102776102723660046112bf565b6105d9565b005b60075461028c906001600160a01b031681565b6040516001600160a01b03909116815260200161015f565b61017b6102b2366004611176565b6106fc565b61019c6102c5366004611364565b6001600160a01b039182165f90815260016020908152604080832093909416825291909152205460ff1690565b61017b61030036600461110f565b5f9081526006602052604090205490565b60095461028c906001600160a01b031681565b6102776103323660046113d5565b610758565b61015261034536600461110f565b610883565b61015261089f565b6102776103603660046113d5565b6108ae565b610277610373366004611453565b6109cb565b61019c610386366004611514565b610af4565b5f8181526005602052604090208054606091906103a790611553565b80601f01602080910402602001604051908101604052809291908181526020018280546103d390611553565b801561041e5780601f106103f55761010080835404028352916020019161041e565b820191905f5260205f20905b81548152906001019060200180831161040157829003601f168201915b50505050509050919050565b6001600160a01b0382165f908152602081815260408083208484529091529020545b92915050565b5f6001600160e01b03198216630f632fb360e01b148061044c57506301ffc9a760e01b6001600160e01b031983161461044c565b60606008805461049590611553565b80601f01602080910402602001604051908101604052809291908181526020018280546104c190611553565b801561050c5780601f106104e35761010080835404028352916020019161050c565b820191905f5260205f20905b8154815290600101906020018083116104ef57829003601f168201915b5050505050905090565b5f61052333858585610b5d565b5060019392505050565b6007546040805163313ce56760e01b815290515f926001600160a01b03169163313ce5679160048083019260209291908290030181865afa158015610574573d5f5f3e3d5ffd5b505050506040513d601f19601f8201168201806040525081019061044c919061158b565b5f61052333858585610bc6565b5f8181526005602052604090206001018054606091906103a790611553565b5f6105d0338484610c85565b50600192915050565b5f6105e433896106fc565b90505f869003610607576040516367a4129960e11b815260040160405180910390fd5b5f6106118261038b565b905080515f1461063457604051631c02c93960e31b815260040160405180910390fd5b6106738289898080601f0160208091040260200160405190810160405280939291908181526020018383808284375f92019190915250610d4392505050565b6106b28287878080601f0160208091040260200160405190810160405280939291908181526020018383808284375f92019190915250610d9792505050565b6106f18285858080601f0160208091040260200160405190810160405280939291908181526020018383808284375f92019190915250610de292505050565b505050505050505050565b5f6040518060400160405280600f81526020016e76312e7374616b6563686f6963657360881b8152508383604051602001610739939291906115ab565b60408051601f1981840301815291905280516020909101209392505050565b82811461077b576040516001621398b960e31b0319815260040160405180910390fd5b5f805b848110156107b457838382818110610798576107986115e2565b90506020020135826107aa91906115f6565b915060010161077e565b506007546040516323b872dd60e01b8152336004820152306024820152604481018390526001600160a01b03909116906323b872dd906064016020604051808303815f875af1158015610809573d5f5f3e3d5ffd5b505050506040513d601f19601f8201168201806040525081019061082d9190611615565b505f5b8481101561087b576108733387878481811061084e5761084e6115e2565b90506020020135868685818110610867576108676115e2565b90506020020135610e2a565b600101610830565b505050505050565b5f8181526004602052604090208054606091906103a790611553565b60606003805461049590611553565b8281146108d1576040516001621398b960e31b0319815260040160405180910390fd5b5f805b8481101561090a578383828181106108ee576108ee6115e2565b905060200201358261090091906115f6565b91506001016108d4565b505f5b84811015610958576109503387878481811061092b5761092b6115e2565b90506020020135868685818110610944576109446115e2565b90506020020135610e64565b60010161090d565b5060075460405163a9059cbb60e01b8152336004820152602481018390526001600160a01b039091169063a9059cbb906044016020604051808303815f875af11580156109a7573d5f5f3e3d5ffd5b505050506040513d601f19601f8201168201806040525081019061087b9190611615565b5f6109d4610e99565b805490915060ff600160401b82041615906001600160401b03165f811580156109fa5750825b90505f826001600160401b03166001148015610a155750303b155b905081158015610a23575080155b15610a415760405163f92ee8a960e01b815260040160405180910390fd5b845467ffffffffffffffff191660011785558315610a6b57845460ff60401b1916600160401b1785555b600780546001600160a01b0319166001600160a01b0389161790556008610a928782611674565b50600980546001600160a01b031916331790558315610aeb57845460ff60401b19168555604051600181527fc7f505b2f371ae2175ee4913f4499e1f2633a7b5936321eed1cdaeb6115181d29060200160405180910390a15b50505050505050565b5f336001600160a01b0386168114801590610b3457506001600160a01b038087165f9081526001602090815260408083209385168352929052205460ff16155b15610b4557610b4586828686610ec1565b610b5186868686610b5d565b50600195945050505050565b6001600160a01b038416610b8b576040516301486a4160e71b81525f60048201526024015b60405180910390fd5b6001600160a01b038316610bb457604051630b8bbd6160e41b81525f6004820152602401610b82565b610bc084848484610f71565b50505050565b6001600160a01b038416610bef5760405163198ecd5360e31b81525f6004820152602401610b82565b6001600160a01b038316610c1857604051636f65f46560e01b81525f6004820152602401610b82565b6001600160a01b038481165f8181526002602090815260408083209488168084529482528083208784528252918290208590559051848152859392917fb3fd5071835887567a0671151121894ddccc2842f1d10bedad13e0d17cace9a7910160405180910390a450505050565b6001600160a01b038316610cae5760405163198ecd5360e31b81525f6004820152602401610b82565b6001600160a01b038216610cd757604051636f65f46560e01b81525f6004820152602401610b82565b6001600160a01b038381165f81815260016020908152604080832094871680845294825291829020805460ff191686151590811790915591519182527fceb576d9f15e4e200fdb5096d64d5dfd667e16def20c1eefd14256d8e3faa267910160405180910390a3505050565b5f828152600560205260409020610d5a8282611674565b50817f6846707b16f55a3623d38bf118700af63d0784698270a53ce28b116dbaa8b79482604051610d8b9190611126565b60405180910390a25050565b5f828152600560205260409020600101610db18282611674565b50817f8fabcb7b4fbdde605303a7339bc80fb6956cd01a42e9cdf2d15d0f2fdd3b06fa82604051610d8b9190611126565b5f828152600460205260409020610df98282611674565b50817f6bb7ff708619ba0610cba295a58592e0451dee2622938c8755667688daf3529b82604051610d8b9190611126565b6001600160a01b038316610e5357604051630b8bbd6160e41b81525f6004820152602401610b82565b610e5f5f848484610f71565b505050565b6001600160a01b038316610e8d576040516301486a4160e71b81525f6004820152602401610b82565b610e5f835f8484610f71565b5f807ff0c57e16840df040f15088dc2f81fe391c3923bec73e23a9662efc9c229c6a0061044c565b6001600160a01b038481165f9081526002602090815260408083209387168352928152828220858352905220545f19811015610f6a5781811015610f3857604051632c51fead60e11b81526001600160a01b0385166004820152602481018290526044810183905260648101849052608401610b82565b6001600160a01b038086165f908152600260209081526040808320938816835292815282822086835290522082820390555b5050505050565b610bc084848484610f8484848484610fdd565b6001600160a01b038416610fb5575f8281526006602052604081208054839290610faf9084906115f6565b90915550505b6001600160a01b038316610bc0575f8281526006602052604090208054829003905550505050565b336001600160a01b03851615611076576001600160a01b0385165f908152602081815260408083208684529091529020548281101561104f576040516302c6d3fb60e61b81526001600160a01b0387166004820152602481018290526044810184905260648101859052608401610b82565b6001600160a01b0386165f9081526020818152604080832087845290915290209083900390555b6001600160a01b038416156110bb576001600160a01b0384165f90815260208181526040808320868452909152812080548492906110b59084906115f6565b90915550505b604080516001600160a01b03838116825260208201859052859281881692918916917f1b3d7edb2e9c0b0e7c525b20aaaef0f5940d2ed71663c7d39266ecafac728859910160405180910390a45050505050565b5f6020828403121561111f575f5ffd5b5035919050565b602081525f82518060208401528060208501604085015e5f604082850101526040601f19601f83011684010191505092915050565b80356001600160a01b0381168114611171575f5ffd5b919050565b5f5f60408385031215611187575f5ffd5b6111908361115b565b946020939093013593505050565b5f602082840312156111ae575f5ffd5b81356001600160e01b0319811681146111c5575f5ffd5b9392505050565b5f5f5f606084860312156111de575f5ffd5b6111e78461115b565b95602085013595506040909401359392505050565b8015158114611209575f5ffd5b50565b5f5f6040838503121561121d575f5ffd5b6112268361115b565b91506020830135611236816111fc565b809150509250929050565b5f5f5f60608486031215611253575f5ffd5b61125c8461115b565b925061126a6020850161115b565b929592945050506040919091013590565b5f5f83601f84011261128b575f5ffd5b5081356001600160401b038111156112a1575f5ffd5b6020830191508360208285010111156112b8575f5ffd5b9250929050565b5f5f5f5f5f5f5f6080888a0312156112d5575f5ffd5b8735965060208801356001600160401b038111156112f1575f5ffd5b6112fd8a828b0161127b565b90975095505060408801356001600160401b0381111561131b575f5ffd5b6113278a828b0161127b565b90955093505060608801356001600160401b03811115611345575f5ffd5b6113518a828b0161127b565b989b979a50959850939692959293505050565b5f5f60408385031215611375575f5ffd5b61137e8361115b565b915061138c6020840161115b565b90509250929050565b5f5f83601f8401126113a5575f5ffd5b5081356001600160401b038111156113bb575f5ffd5b6020830191508360208260051b85010111156112b8575f5ffd5b5f5f5f5f604085870312156113e8575f5ffd5b84356001600160401b038111156113fd575f5ffd5b61140987828801611395565b90955093505060208501356001600160401b03811115611427575f5ffd5b61143387828801611395565b95989497509550505050565b634e487b7160e01b5f52604160045260245ffd5b5f5f60408385031215611464575f5ffd5b61146d8361115b565b915060208301356001600160401b03811115611487575f5ffd5b8301601f81018513611497575f5ffd5b80356001600160401b038111156114b0576114b061143f565b604051601f8201601f19908116603f011681016001600160401b03811182821017156114de576114de61143f565b6040528181528282016020018710156114f5575f5ffd5b816020840160208301375f602083830101528093505050509250929050565b5f5f5f5f60808587031215611527575f5ffd5b6115308561115b565b935061153e6020860161115b565b93969395505050506040820135916060013590565b600181811c9082168061156757607f821691505b60208210810361158557634e487b7160e01b5f52602260045260245ffd5b50919050565b5f6020828403121561159b575f5ffd5b815160ff811681146111c5575f5ffd5b5f84518060208701845e60609490941b6bffffffffffffffffffffffff191691909301908152601481019190915260340192915050565b634e487b7160e01b5f52603260045260245ffd5b8082018082111561044c57634e487b7160e01b5f52601160045260245ffd5b5f60208284031215611625575f5ffd5b81516111c5816111fc565b601f821115610e5f57805f5260205f20601f840160051c810160208510156116555750805b601f840160051c820191505b81811015610f6a575f8155600101611661565b81516001600160401b0381111561168d5761168d61143f565b6116a18161169b8454611553565b84611630565b6020601f8211600181146116d3575f83156116bc5750848201515b5f19600385901b1c1916600184901b178455610f6a565b5f84815260208120601f198516915b8281101561170257878501518255602094850194600190920191016116e2565b508482101561171f57868401515f19600387901b60f8161c191681555b50505050600190811b0190555056fea264697066735822122057f5b06e99d61d057281c5a730111c1735648d872a605ae99e9180962640581364736f6c634300081e0033",
        "nonce": "0xd",
        "chainId": "0xaa37dc"
      },
      "additionalContracts": [
        {
          "transactionType": "CREATE",
          "address": "0x3e89aba51ede4985cb3fbef33bc5648e2bef16b5",
          "initCode": "0x6080604052348015600e575f5ffd5b5060156019565b60c9565b7ff0c57e16840df040f15088dc2f81fe391c3923bec73e23a9662efc9c229c6a00805468010000000000000000900460ff161560685760405163f92ee8a960e01b815260040160405180910390fd5b80546001600160401b039081161460c65780546001600160401b0319166001600160401b0390811782556040519081527fc7f505b2f371ae2175ee4913f4499e1f2633a7b5936321eed1cdaeb6115181d29060200160405180910390a15b50565b611764806100d65f395ff3fe608060405234801561000f575f5ffd5b506004361061013b575f3560e01c806372f702f3116100b4578063c4ede05011610079578063c4ede05014610324578063c87b56dd14610337578063e8a3d4851461034a578063ec590f4f14610352578063f399e22e14610365578063fe99049a14610378575f5ffd5b806372f702f314610279578063ab66d3ff146102a4578063b6363cf2146102b7578063bd85b039146102f2578063c45a015514610311575f5ffd5b80633f47e662116101055780633f47e662146101c7578063426a8493146101ec5780634e41a1fb146101ff578063558a729714610212578063598af9e7146102255780636a4274ab14610264575f5ffd5b8062ad800c1461013f578062fdd58e1461016857806301ffc9a71461018957806306fdde03146101ac578063095bcdb6146101b4575b5f5ffd5b61015261014d36600461110f565b61038b565b60405161015f9190611126565b60405180910390f35b61017b610176366004611176565b61042a565b60405190815260200161015f565b61019c61019736600461119e565b610452565b604051901515815260200161015f565b610152610486565b61019c6101c23660046111cc565b610516565b6101da6101d536600461110f565b61052d565b60405160ff909116815260200161015f565b61019c6101fa3660046111cc565b610598565b61015261020d36600461110f565b6105a5565b61019c61022036600461120c565b6105c4565b61017b610233366004611241565b6001600160a01b039283165f9081526002602090815260408083209490951682529283528381209181529152205490565b6102776102723660046112bf565b6105d9565b005b60075461028c906001600160a01b031681565b6040516001600160a01b03909116815260200161015f565b61017b6102b2366004611176565b6106fc565b61019c6102c5366004611364565b6001600160a01b039182165f90815260016020908152604080832093909416825291909152205460ff1690565b61017b61030036600461110f565b5f9081526006602052604090205490565b60095461028c906001600160a01b031681565b6102776103323660046113d5565b610758565b61015261034536600461110f565b610883565b61015261089f565b6102776103603660046113d5565b6108ae565b610277610373366004611453565b6109cb565b61019c610386366004611514565b610af4565b5f8181526005602052604090208054606091906103a790611553565b80601f01602080910402602001604051908101604052809291908181526020018280546103d390611553565b801561041e5780601f106103f55761010080835404028352916020019161041e565b820191905f5260205f20905b81548152906001019060200180831161040157829003601f168201915b50505050509050919050565b6001600160a01b0382165f908152602081815260408083208484529091529020545b92915050565b5f6001600160e01b03198216630f632fb360e01b148061044c57506301ffc9a760e01b6001600160e01b031983161461044c565b60606008805461049590611553565b80601f01602080910402602001604051908101604052809291908181526020018280546104c190611553565b801561050c5780601f106104e35761010080835404028352916020019161050c565b820191905f5260205f20905b8154815290600101906020018083116104ef57829003601f168201915b5050505050905090565b5f61052333858585610b5d565b5060019392505050565b6007546040805163313ce56760e01b815290515f926001600160a01b03169163313ce5679160048083019260209291908290030181865afa158015610574573d5f5f3e3d5ffd5b505050506040513d601f19601f8201168201806040525081019061044c919061158b565b5f61052333858585610bc6565b5f8181526005602052604090206001018054606091906103a790611553565b5f6105d0338484610c85565b50600192915050565b5f6105e433896106fc565b90505f869003610607576040516367a4129960e11b815260040160405180910390fd5b5f6106118261038b565b905080515f1461063457604051631c02c93960e31b815260040160405180910390fd5b6106738289898080601f0160208091040260200160405190810160405280939291908181526020018383808284375f92019190915250610d4392505050565b6106b28287878080601f0160208091040260200160405190810160405280939291908181526020018383808284375f92019190915250610d9792505050565b6106f18285858080601f0160208091040260200160405190810160405280939291908181526020018383808284375f92019190915250610de292505050565b505050505050505050565b5f6040518060400160405280600f81526020016e76312e7374616b6563686f6963657360881b8152508383604051602001610739939291906115ab565b60408051601f1981840301815291905280516020909101209392505050565b82811461077b576040516001621398b960e31b0319815260040160405180910390fd5b5f805b848110156107b457838382818110610798576107986115e2565b90506020020135826107aa91906115f6565b915060010161077e565b506007546040516323b872dd60e01b8152336004820152306024820152604481018390526001600160a01b03909116906323b872dd906064016020604051808303815f875af1158015610809573d5f5f3e3d5ffd5b505050506040513d601f19601f8201168201806040525081019061082d9190611615565b505f5b8481101561087b576108733387878481811061084e5761084e6115e2565b90506020020135868685818110610867576108676115e2565b90506020020135610e2a565b600101610830565b505050505050565b5f8181526004602052604090208054606091906103a790611553565b60606003805461049590611553565b8281146108d1576040516001621398b960e31b0319815260040160405180910390fd5b5f805b8481101561090a578383828181106108ee576108ee6115e2565b905060200201358261090091906115f6565b91506001016108d4565b505f5b84811015610958576109503387878481811061092b5761092b6115e2565b90506020020135868685818110610944576109446115e2565b90506020020135610e64565b60010161090d565b5060075460405163a9059cbb60e01b8152336004820152602481018390526001600160a01b039091169063a9059cbb906044016020604051808303815f875af11580156109a7573d5f5f3e3d5ffd5b505050506040513d601f19601f8201168201806040525081019061087b9190611615565b5f6109d4610e99565b805490915060ff600160401b82041615906001600160401b03165f811580156109fa5750825b90505f826001600160401b03166001148015610a155750303b155b905081158015610a23575080155b15610a415760405163f92ee8a960e01b815260040160405180910390fd5b845467ffffffffffffffff191660011785558315610a6b57845460ff60401b1916600160401b1785555b600780546001600160a01b0319166001600160a01b0389161790556008610a928782611674565b50600980546001600160a01b031916331790558315610aeb57845460ff60401b19168555604051600181527fc7f505b2f371ae2175ee4913f4499e1f2633a7b5936321eed1cdaeb6115181d29060200160405180910390a15b50505050505050565b5f336001600160a01b0386168114801590610b3457506001600160a01b038087165f9081526001602090815260408083209385168352929052205460ff16155b15610b4557610b4586828686610ec1565b610b5186868686610b5d565b50600195945050505050565b6001600160a01b038416610b8b576040516301486a4160e71b81525f60048201526024015b60405180910390fd5b6001600160a01b038316610bb457604051630b8bbd6160e41b81525f6004820152602401610b82565b610bc084848484610f71565b50505050565b6001600160a01b038416610bef5760405163198ecd5360e31b81525f6004820152602401610b82565b6001600160a01b038316610c1857604051636f65f46560e01b81525f6004820152602401610b82565b6001600160a01b038481165f8181526002602090815260408083209488168084529482528083208784528252918290208590559051848152859392917fb3fd5071835887567a0671151121894ddccc2842f1d10bedad13e0d17cace9a7910160405180910390a450505050565b6001600160a01b038316610cae5760405163198ecd5360e31b81525f6004820152602401610b82565b6001600160a01b038216610cd757604051636f65f46560e01b81525f6004820152602401610b82565b6001600160a01b038381165f81815260016020908152604080832094871680845294825291829020805460ff191686151590811790915591519182527fceb576d9f15e4e200fdb5096d64d5dfd667e16def20c1eefd14256d8e3faa267910160405180910390a3505050565b5f828152600560205260409020610d5a8282611674565b50817f6846707b16f55a3623d38bf118700af63d0784698270a53ce28b116dbaa8b79482604051610d8b9190611126565b60405180910390a25050565b5f828152600560205260409020600101610db18282611674565b50817f8fabcb7b4fbdde605303a7339bc80fb6956cd01a42e9cdf2d15d0f2fdd3b06fa82604051610d8b9190611126565b5f828152600460205260409020610df98282611674565b50817f6bb7ff708619ba0610cba295a58592e0451dee2622938c8755667688daf3529b82604051610d8b9190611126565b6001600160a01b038316610e5357604051630b8bbd6160e41b81525f6004820152602401610b82565b610e5f5f848484610f71565b505050565b6001600160a01b038316610e8d576040516301486a4160e71b81525f6004820152602401610b82565b610e5f835f8484610f71565b5f807ff0c57e16840df040f15088dc2f81fe391c3923bec73e23a9662efc9c229c6a0061044c565b6001600160a01b038481165f9081526002602090815260408083209387168352928152828220858352905220545f19811015610f6a5781811015610f3857604051632c51fead60e11b81526001600160a01b0385166004820152602481018290526044810183905260648101849052608401610b82565b6001600160a01b038086165f908152600260209081526040808320938816835292815282822086835290522082820390555b5050505050565b610bc084848484610f8484848484610fdd565b6001600160a01b038416610fb5575f8281526006602052604081208054839290610faf9084906115f6565b90915550505b6001600160a01b038316610bc0575f8281526006602052604090208054829003905550505050565b336001600160a01b03851615611076576001600160a01b0385165f908152602081815260408083208684529091529020548281101561104f576040516302c6d3fb60e61b81526001600160a01b0387166004820152602481018290526044810184905260648101859052608401610b82565b6001600160a01b0386165f9081526020818152604080832087845290915290209083900390555b6001600160a01b038416156110bb576001600160a01b0384165f90815260208181526040808320868452909152812080548492906110b59084906115f6565b90915550505b604080516001600160a01b03838116825260208201859052859281881692918916917f1b3d7edb2e9c0b0e7c525b20aaaef0f5940d2ed71663c7d39266ecafac728859910160405180910390a45050505050565b5f6020828403121561111f575f5ffd5b5035919050565b602081525f82518060208401528060208501604085015e5f604082850101526040601f19601f83011684010191505092915050565b80356001600160a01b0381168114611171575f5ffd5b919050565b5f5f60408385031215611187575f5ffd5b6111908361115b565b946020939093013593505050565b5f602082840312156111ae575f5ffd5b81356001600160e01b0319811681146111c5575f5ffd5b9392505050565b5f5f5f606084860312156111de575f5ffd5b6111e78461115b565b95602085013595506040909401359392505050565b8015158114611209575f5ffd5b50565b5f5f6040838503121561121d575f5ffd5b6112268361115b565b91506020830135611236816111fc565b809150509250929050565b5f5f5f60608486031215611253575f5ffd5b61125c8461115b565b925061126a6020850161115b565b929592945050506040919091013590565b5f5f83601f84011261128b575f5ffd5b5081356001600160401b038111156112a1575f5ffd5b6020830191508360208285010111156112b8575f5ffd5b9250929050565b5f5f5f5f5f5f5f6080888a0312156112d5575f5ffd5b8735965060208801356001600160401b038111156112f1575f5ffd5b6112fd8a828b0161127b565b90975095505060408801356001600160401b0381111561131b575f5ffd5b6113278a828b0161127b565b90955093505060608801356001600160401b03811115611345575f5ffd5b6113518a828b0161127b565b989b979a50959850939692959293505050565b5f5f60408385031215611375575f5ffd5b61137e8361115b565b915061138c6020840161115b565b90509250929050565b5f5f83601f8401126113a5575f5ffd5b5081356001600160401b038111156113bb575f5ffd5b6020830191508360208260051b85010111156112b8575f5ffd5b5f5f5f5f604085870312156113e8575f5ffd5b84356001600160401b038111156113fd575f5ffd5b61140987828801611395565b90955093505060208501356001600160401b03811115611427575f5ffd5b61143387828801611395565b95989497509550505050565b634e487b7160e01b5f52604160045260245ffd5b5f5f60408385031215611464575f5ffd5b61146d8361115b565b915060208301356001600160401b03811115611487575f5ffd5b8301601f81018513611497575f5ffd5b80356001600160401b038111156114b0576114b061143f565b604051601f8201601f19908116603f011681016001600160401b03811182821017156114de576114de61143f565b6040528181528282016020018710156114f5575f5ffd5b816020840160208301375f602083830101528093505050509250929050565b5f5f5f5f60808587031215611527575f5ffd5b6115308561115b565b935061153e6020860161115b565b93969395505050506040820135916060013590565b600181811c9082168061156757607f821691505b60208210810361158557634e487b7160e01b5f52602260045260245ffd5b50919050565b5f6020828403121561159b575f5ffd5b815160ff811681146111c5575f5ffd5b5f84518060208701845e60609490941b6bffffffffffffffffffffffff191691909301908152601481019190915260340192915050565b634e487b7160e01b5f52603260045260245ffd5b8082018082111561044c57634e487b7160e01b5f52601160045260245ffd5b5f60208284031215611625575f5ffd5b81516111c5816111fc565b601f821115610e5f57805f5260205f20601f840160051c810160208510156116555750805b601f840160051c820191505b81811015610f6a575f8155600101611661565b81516001600160401b0381111561168d5761168d61143f565b6116a18161169b8454611553565b84611630565b6020601f8211600181146116d3575f83156116bc5750848201515b5f19600385901b1c1916600184901b178455610f6a565b5f84815260208120601f198516915b8281101561170257878501518255602094850194600190920191016116e2565b508482101561171f57868401515f19600387901b60f8161c191681555b50505050600190811b0190555056fea264697066735822122057f5b06e99d61d057281c5a730111c1735648d872a605ae99e9180962640581364736f6c634300081e0033"
        }
      ],
      "isFixedGasLimit": false
    },
    {
      "hash": "0x1459da3bea5aa46a732c465766cb0e80eb60e02b665bffcfa2079cb95735c161",
      "transactionType": "CALL",
      "contractName": "StakeChoicesFactory",
      "contractAddress": "0x17fc7698a7065b41007dc270afa4aa85313e2717",
      "function": "deployToken(address,string)",
      "arguments": [
        "0xAA2B1999C772cF2B4E5478e4b5C54aE8447ef756",
        "Test Session"
      ],
      "transaction": {
        "from": "0x281a3b958d6068b41c1e0c9c5e0d17830fc78272",
        "to": "0x17fc7698a7065b41007dc270afa4aa85313e2717",
        "gas": "0x365b4",
        "value": "0x0",
        "input": "0xc353d2ba000000000000000000000000aa2b1999c772cf2b4e5478e4b5c54ae8447ef7560000000000000000000000000000000000000000000000000000000000000040000000000000000000000000000000000000000000000000000000000000000c546573742053657373696f6e0000000000000000000000000000000000000000",
        "nonce": "0xe",
        "chainId": "0xaa37dc"
      },
      "additionalContracts": [
        {
          "transactionType": "CREATE",
          "address": "0x79ed6d4b6d582286944ad6cc18cb7a61ca5c2199",
          "initCode": "0x3d602d80600a3d3981f3363d3d373d3d3d363d733e89aba51ede4985cb3fbef33bc5648e2bef16b55af43d82803e903d91602b57fd5bf3"
        }
      ],
      "isFixedGasLimit": false
    },
    {
      "hash": "0x6c448610700888b703c372977a014af66dcbfbb689f3c34ae62d779009eaed9d",
      "transactionType": "CALL",
      "contractName": null,
      "contractAddress": "0x79ed6d4b6d582286944ad6cc18cb7a61ca5c2199",
      "function": "registerChoice(bytes32,string,string,string)",
      "arguments": [
        "0x0000000000000000000000000000000000000000000000000000000000000001",
        "Staked GTC - Choice 1",
        "游볼GTC-C1",
        "data:application/json,{\\\"name\\\":\\\"Staked GTC - Choice 1\\\",\\\"symbol\\\":\\\"游볼GTC-C1\\\"}"
      ],
      "transaction": {
        "from": "0x281a3b958d6068b41c1e0c9c5e0d17830fc78272",
        "to": "0x79ed6d4b6d582286944ad6cc18cb7a61ca5c2199",
        "gas": "0x3ce7c",
        "value": "0x0",
        "input": "0x6a4274ab0000000000000000000000000000000000000000000000000000000000000001000000000000000000000000000000000000000000000000000000000000008000000000000000000000000000000000000000000000000000000000000000c0000000000000000000000000000000000000000000000000000000000000010000000000000000000000000000000000000000000000000000000000000000155374616b656420475443202d2043686f69636520310000000000000000000000000000000000000000000000000000000000000000000000000000000000000af09fa5a94754432d433100000000000000000000000000000000000000000000000000000000000000000000000000000000000000000000000000000000004c646174613a6170706c69636174696f6e2f6a736f6e2c7b226e616d65223a225374616b656420475443202d2043686f6963652031222c2273796d626f6c223a22f09fa5a94754432d4331227d0000000000000000000000000000000000000000",
        "nonce": "0xf",
        "chainId": "0xaa37dc"
      },
      "additionalContracts": [],
      "isFixedGasLimit": false
    },
    {
      "hash": "0x66d07d0d2ca37103625e6406e2bff696be0469bdd3efcf64d40ef27ae6d79ce6",
      "transactionType": "CALL",
      "contractName": null,
      "contractAddress": "0x79ed6d4b6d582286944ad6cc18cb7a61ca5c2199",
      "function": "registerChoice(bytes32,string,string,string)",
      "arguments": [
        "0x0000000000000000000000000000000000000000000000000000000000000002",
        "Staked GTC - Choice 2",
        "游볼GTC-C2",
        "data:application/json,{\\\"name\\\":\\\"Staked GTC - Choice 2\\\",\\\"symbol\\\":\\\"游볼GTC-C2\\\"}"
      ],
      "transaction": {
        "from": "0x281a3b958d6068b41c1e0c9c5e0d17830fc78272",
        "to": "0x79ed6d4b6d582286944ad6cc18cb7a61ca5c2199",
        "gas": "0x3ce7c",
        "value": "0x0",
        "input": "0x6a4274ab0000000000000000000000000000000000000000000000000000000000000002000000000000000000000000000000000000000000000000000000000000008000000000000000000000000000000000000000000000000000000000000000c0000000000000000000000000000000000000000000000000000000000000010000000000000000000000000000000000000000000000000000000000000000155374616b656420475443202d2043686f69636520320000000000000000000000000000000000000000000000000000000000000000000000000000000000000af09fa5a94754432d433200000000000000000000000000000000000000000000000000000000000000000000000000000000000000000000000000000000004c646174613a6170706c69636174696f6e2f6a736f6e2c7b226e616d65223a225374616b656420475443202d2043686f6963652032222c2273796d626f6c223a22f09fa5a94754432d4332227d0000000000000000000000000000000000000000",
        "nonce": "0x10",
        "chainId": "0xaa37dc"
      },
      "additionalContracts": [],
      "isFixedGasLimit": false
    },
    {
      "hash": "0xf65aafff994fff9ed1602c40b71dcfbffd6c5229f0f2a658ebbca9ae6e01c0fe",
      "transactionType": "CALL",
      "contractName": null,
      "contractAddress": "0x79ed6d4b6d582286944ad6cc18cb7a61ca5c2199",
      "function": "registerChoice(bytes32,string,string,string)",
      "arguments": [
        "0x0000000000000000000000000000000000000000000000000000000000000003",
        "Staked GTC - Choice 3",
        "游볼GTC-C3",
        "data:application/json,{\\\"name\\\":\\\"Staked GTC - Choice 3\\\",\\\"symbol\\\":\\\"游볼GTC-C3\\\"}"
      ],
      "transaction": {
        "from": "0x281a3b958d6068b41c1e0c9c5e0d17830fc78272",
        "to": "0x79ed6d4b6d582286944ad6cc18cb7a61ca5c2199",
        "gas": "0x3ce7c",
        "value": "0x0",
        "input": "0x6a4274ab0000000000000000000000000000000000000000000000000000000000000003000000000000000000000000000000000000000000000000000000000000008000000000000000000000000000000000000000000000000000000000000000c0000000000000000000000000000000000000000000000000000000000000010000000000000000000000000000000000000000000000000000000000000000155374616b656420475443202d2043686f69636520330000000000000000000000000000000000000000000000000000000000000000000000000000000000000af09fa5a94754432d433300000000000000000000000000000000000000000000000000000000000000000000000000000000000000000000000000000000004c646174613a6170706c69636174696f6e2f6a736f6e2c7b226e616d65223a225374616b656420475443202d2043686f6963652033222c2273796d626f6c223a22f09fa5a94754432d4333227d0000000000000000000000000000000000000000",
        "nonce": "0x11",
        "chainId": "0xaa37dc"
      },
      "additionalContracts": [],
      "isFixedGasLimit": false
    },
    {
      "hash": "0x624eabf2d2e9f12b3a5fc662644fc8530af87ce3412dc93a2b26543112267be6",
      "transactionType": "CALL",
      "contractName": null,
      "contractAddress": "0x79ed6d4b6d582286944ad6cc18cb7a61ca5c2199",
      "function": "registerChoice(bytes32,string,string,string)",
      "arguments": [
        "0x0000000000000000000000000000000000000000000000000000000000000004",
        "Staked GTC - Choice 4",
        "游볼GTC-C4",
        "data:application/json,{\\\"name\\\":\\\"Staked GTC - Choice 4\\\",\\\"symbol\\\":\\\"游볼GTC-C4\\\"}"
      ],
      "transaction": {
        "from": "0x281a3b958d6068b41c1e0c9c5e0d17830fc78272",
        "to": "0x79ed6d4b6d582286944ad6cc18cb7a61ca5c2199",
        "gas": "0x3ce7c",
        "value": "0x0",
        "input": "0x6a4274ab0000000000000000000000000000000000000000000000000000000000000004000000000000000000000000000000000000000000000000000000000000008000000000000000000000000000000000000000000000000000000000000000c0000000000000000000000000000000000000000000000000000000000000010000000000000000000000000000000000000000000000000000000000000000155374616b656420475443202d2043686f69636520340000000000000000000000000000000000000000000000000000000000000000000000000000000000000af09fa5a94754432d433400000000000000000000000000000000000000000000000000000000000000000000000000000000000000000000000000000000004c646174613a6170706c69636174696f6e2f6a736f6e2c7b226e616d65223a225374616b656420475443202d2043686f6963652034222c2273796d626f6c223a22f09fa5a94754432d4334227d0000000000000000000000000000000000000000",
        "nonce": "0x12",
        "chainId": "0xaa37dc"
      },
      "additionalContracts": [],
      "isFixedGasLimit": false
    },
    {
      "hash": "0x0d2690b5c6fe3fd415f6972e6378402559f451f26d2c1b03a9794ead80194e02",
      "transactionType": "CALL",
      "contractName": null,
      "contractAddress": "0x79ed6d4b6d582286944ad6cc18cb7a61ca5c2199",
      "function": "registerChoice(bytes32,string,string,string)",
      "arguments": [
        "0x0000000000000000000000000000000000000000000000000000000000000005",
        "Staked GTC - Choice 5",
        "游볼GTC-C5",
        "data:application/json,{\\\"name\\\":\\\"Staked GTC - Choice 5\\\",\\\"symbol\\\":\\\"游볼GTC-C5\\\"}"
      ],
      "transaction": {
        "from": "0x281a3b958d6068b41c1e0c9c5e0d17830fc78272",
        "to": "0x79ed6d4b6d582286944ad6cc18cb7a61ca5c2199",
        "gas": "0x3ce7c",
        "value": "0x0",
        "input": "0x6a4274ab0000000000000000000000000000000000000000000000000000000000000005000000000000000000000000000000000000000000000000000000000000008000000000000000000000000000000000000000000000000000000000000000c0000000000000000000000000000000000000000000000000000000000000010000000000000000000000000000000000000000000000000000000000000000155374616b656420475443202d2043686f69636520350000000000000000000000000000000000000000000000000000000000000000000000000000000000000af09fa5a94754432d433500000000000000000000000000000000000000000000000000000000000000000000000000000000000000000000000000000000004c646174613a6170706c69636174696f6e2f6a736f6e2c7b226e616d65223a225374616b656420475443202d2043686f6963652035222c2273796d626f6c223a22f09fa5a94754432d4335227d0000000000000000000000000000000000000000",
        "nonce": "0x13",
        "chainId": "0xaa37dc"
      },
      "additionalContracts": [],
      "isFixedGasLimit": false
    },
    {
      "hash": "0xd4040d433ef54345f08215ffd74a9083c803c9595af5918f79ccd097535d4408",
      "transactionType": "CALL",
      "contractName": null,
      "contractAddress": "0x79ed6d4b6d582286944ad6cc18cb7a61ca5c2199",
      "function": "registerChoice(bytes32,string,string,string)",
      "arguments": [
        "0x0000000000000000000000000000000000000000000000000000000000000006",
        "Staked GTC - Choice 6",
        "游볼GTC-C6",
        "data:application/json,{\\\"name\\\":\\\"Staked GTC - Choice 6\\\",\\\"symbol\\\":\\\"游볼GTC-C6\\\"}"
      ],
      "transaction": {
        "from": "0x281a3b958d6068b41c1e0c9c5e0d17830fc78272",
        "to": "0x79ed6d4b6d582286944ad6cc18cb7a61ca5c2199",
        "gas": "0x3ce7c",
        "value": "0x0",
        "input": "0x6a4274ab0000000000000000000000000000000000000000000000000000000000000006000000000000000000000000000000000000000000000000000000000000008000000000000000000000000000000000000000000000000000000000000000c0000000000000000000000000000000000000000000000000000000000000010000000000000000000000000000000000000000000000000000000000000000155374616b656420475443202d2043686f69636520360000000000000000000000000000000000000000000000000000000000000000000000000000000000000af09fa5a94754432d433600000000000000000000000000000000000000000000000000000000000000000000000000000000000000000000000000000000004c646174613a6170706c69636174696f6e2f6a736f6e2c7b226e616d65223a225374616b656420475443202d2043686f6963652036222c2273796d626f6c223a22f09fa5a94754432d4336227d0000000000000000000000000000000000000000",
        "nonce": "0x14",
        "chainId": "0xaa37dc"
      },
      "additionalContracts": [],
      "isFixedGasLimit": false
    },
    {
      "hash": "0xf9876f2614e53f3f2902ef3dfbc0083b10c40d1dffb58279f444c73bf95e0fc4",
      "transactionType": "CREATE",
      "contractName": "StakerWallet",
      "contractAddress": "0xeb5ed03c030448270d5671cd4ae79ad124765f26",
      "function": null,
      "arguments": [
        "0xAA2B1999C772cF2B4E5478e4b5C54aE8447ef756",
        "0x79ed6D4B6d582286944aD6cC18cB7A61Ca5c2199",
        "0x872D0Cf468Ee82cC7D6828f63DDceebb7F19eA19",
        "100000000000000000000"
      ],
      "transaction": {
        "from": "0x281a3b958d6068b41c1e0c9c5e0d17830fc78272",
        "gas": "0x782ed",
        "value": "0x0",
        "input": "0x610100604052348015610010575f5ffd5b506040516106ed3803806106ed83398101604081905261002f9161006c565b6001600160a01b0393841660805291831660a05290911660c05260e0526100b4565b80516001600160a01b0381168114610067575f5ffd5b919050565b5f5f5f5f6080858703121561007f575f5ffd5b61008885610051565b935061009660208601610051565b92506100a460408601610051565b6060959095015193969295505050565b60805160a05160c05160e0516105d96101145f395f818160fb01526101ab01525f818160ad0152818161015e015261032c01525f818160d401528181610201015281816102b2015261038101525f81816069015261023001526105d95ff3fe608060405234801561000f575f5ffd5b5060043610610060575f3560e01c80630bdf5300146100645780632483e715146100a8578063567c8977146100cf5780639a9c8c45146100f6578063c4ede0501461012b578063ec590f4f14610140575b5f5ffd5b61008b7f000000000000000000000000000000000000000000000000000000000000000081565b6040516001600160a01b0390911681526020015b60405180910390f35b61008b7f000000000000000000000000000000000000000000000000000000000000000081565b61008b7f000000000000000000000000000000000000000000000000000000000000000081565b61011d7f000000000000000000000000000000000000000000000000000000000000000081565b60405190815260200161009f565b61013e610139366004610477565b610153565b005b61013e61014e366004610477565b610321565b336001600160a01b037f0000000000000000000000000000000000000000000000000000000000000000161461019c576040516308af1bb760e31b815260040160405180910390fd5b5f6101a783836103ef565b90507f00000000000000000000000000000000000000000000000000000000000000008111156101ea5760405163fd7850ad60e01b815260040160405180910390fd5b60405163095ea7b360e01b81526001600160a01b037f000000000000000000000000000000000000000000000000000000000000000081166004830152602482018390527f0000000000000000000000000000000000000000000000000000000000000000169063095ea7b3906044016020604051808303815f875af1158015610276573d5f5f3e3d5ffd5b505050506040513d601f19601f8201168201806040525081019061029a91906104e3565b50604051630c4ede0560e41b81526001600160a01b037f0000000000000000000000000000000000000000000000000000000000000000169063c4ede050906102ed908890889088908890600401610539565b5f604051808303815f87803b158015610304575f5ffd5b505af1158015610316573d5f5f3e3d5ffd5b505050505050505050565b336001600160a01b037f0000000000000000000000000000000000000000000000000000000000000000161461036a576040516308af1bb760e31b815260040160405180910390fd5b60405163ec590f4f60e01b81526001600160a01b037f0000000000000000000000000000000000000000000000000000000000000000169063ec590f4f906103bc908790879087908790600401610539565b5f604051808303815f87803b1580156103d3575f5ffd5b505af11580156103e5573d5f5f3e3d5ffd5b5050505050505050565b5f805b828110156104285783838281811061040c5761040c61056a565b905060200201358261041e919061057e565b91506001016103f2565b5092915050565b5f5f83601f84011261043f575f5ffd5b50813567ffffffffffffffff811115610456575f5ffd5b6020830191508360208260051b8501011115610470575f5ffd5b9250929050565b5f5f5f5f6040858703121561048a575f5ffd5b843567ffffffffffffffff8111156104a0575f5ffd5b6104ac8782880161042f565b909550935050602085013567ffffffffffffffff8111156104cb575f5ffd5b6104d78782880161042f565b95989497509550505050565b5f602082840312156104f3575f5ffd5b81518015158114610502575f5ffd5b9392505050565b8183525f6001600160fb1b03831115610520575f5ffd5b8260051b80836020870137939093016020019392505050565b604081525f61054c604083018688610509565b828103602084015261055f818587610509565b979650505050505050565b634e487b7160e01b5f52603260045260245ffd5b8082018082111561059d57634e487b7160e01b5f52601160045260245ffd5b9291505056fea2646970667358221220afacf17e7b72b63b62a5a9450b42e1c4fe1b7d2c921164b7ab15531b283dd4d764736f6c634300081e0033000000000000000000000000aa2b1999c772cf2b4e5478e4b5c54ae8447ef75600000000000000000000000079ed6d4b6d582286944ad6cc18cb7a61ca5c2199000000000000000000000000872d0cf468ee82cc7d6828f63ddceebb7f19ea190000000000000000000000000000000000000000000000056bc75e2d63100000",
        "nonce": "0x15",
        "chainId": "0xaa37dc"
      },
      "additionalContracts": [],
      "isFixedGasLimit": false
    }
  ],
  "receipts": [
    {
      "status": "0x1",
      "cumulativeGasUsed": "0x1b6a01",
      "logs": [
        {
          "address": "0x3e89aba51ede4985cb3fbef33bc5648e2bef16b5",
          "topics": [
            "0xc7f505b2f371ae2175ee4913f4499e1f2633a7b5936321eed1cdaeb6115181d2"
          ],
          "data": "0x000000000000000000000000000000000000000000000000ffffffffffffffff",
          "blockHash": "0xa9ea6ac41c781330e55289af7c78d7c54cd14f9ec8dca8b24ed909987462fb15",
          "blockNumber": "0x20bb352",
          "blockTimestamp": "0x68ee4250",
          "transactionHash": "0x4976bcb085f90798d4c9f1d422de0d7508f85bc71a9f9d6eb6c694b39d995535",
          "transactionIndex": "0x1",
          "logIndex": "0x0",
          "removed": false
        }
      ],
      "logsBloom": "0x00000000000000000000000000000002000000000000000000000000000000000000000000000000000000000000000000000000000000000000000000000000000000008000000000000000000000000000000000000000000000000000000000000000000000000000000000000000000000000000000000000000000000000000001000000000000800000000000000000000000080000000000000000000000000000000000000000000000000000000000000000000000000000000000000000000000000000000000000000000000000000004000000000000000000000000000000000000000000000000000000000000000000000000000000000000",
      "type": "0x2",
      "transactionHash": "0x4976bcb085f90798d4c9f1d422de0d7508f85bc71a9f9d6eb6c694b39d995535",
      "transactionIndex": "0x1",
      "blockHash": "0xa9ea6ac41c781330e55289af7c78d7c54cd14f9ec8dca8b24ed909987462fb15",
      "blockNumber": "0x20bb352",
      "gasUsed": "0x1ab5f1",
      "effectiveGasPrice": "0xf433a",
      "from": "0x281a3b958d6068b41c1e0c9c5e0d17830fc78272",
      "to": null,
      "contractAddress": "0x17fc7698a7065b41007dc270afa4aa85313e2717",
      "l1BaseFeeScalar": "0x1db0",
      "l1BlobBaseFee": "0x2",
      "l1BlobBaseFeeScalar": "0xd2730",
      "l1Fee": "0x4cd9",
      "l1GasPrice": "0x18",
      "l1GasUsed": "0x108dc"
    },
    {
      "status": "0x1",
      "cumulativeGasUsed": "0x1ddfa8",
      "logs": [
        {
          "address": "0x79ed6d4b6d582286944ad6cc18cb7a61ca5c2199",
          "topics": [
            "0xc7f505b2f371ae2175ee4913f4499e1f2633a7b5936321eed1cdaeb6115181d2"
          ],
          "data": "0x0000000000000000000000000000000000000000000000000000000000000001",
          "blockHash": "0xdde45593509f2f21c3d5f9db0bd6d0131982360b3820dcde29c9a644ee4b1ad2",
          "blockNumber": "0x20bb352",
          "blockTimestamp": "0x68ee4250",
          "transactionHash": "0x1459da3bea5aa46a732c465766cb0e80eb60e02b665bffcfa2079cb95735c161",
          "transactionIndex": "0x2",
          "logIndex": "0x1",
          "removed": false
        },
        {
          "address": "0x17fc7698a7065b41007dc270afa4aa85313e2717",
          "topics": [
            "0x645e9cc0b6633c2d425a900a1913215f5efdcaa291949130571d98b7b7c4be64",
            "0x00000000000000000000000079ed6d4b6d582286944ad6cc18cb7a61ca5c2199"
          ],
          "data": "0x000000000000000000000000aa2b1999c772cf2b4e5478e4b5c54ae8447ef7560000000000000000000000000000000000000000000000000000000000000040000000000000000000000000000000000000000000000000000000000000000c546573742053657373696f6e0000000000000000000000000000000000000000",
          "blockHash": "0xdde45593509f2f21c3d5f9db0bd6d0131982360b3820dcde29c9a644ee4b1ad2",
          "blockNumber": "0x20bb352",
          "blockTimestamp": "0x68ee4250",
          "transactionHash": "0x1459da3bea5aa46a732c465766cb0e80eb60e02b665bffcfa2079cb95735c161",
          "transactionIndex": "0x2",
          "logIndex": "0x2",
          "removed": false
        }
      ],
      "logsBloom": "0x00000000000000000000000000000000000000000000000030000000000000000000000000000000004000000000000000000000000000000000400000000000000000000000000000000000000000000004000000000000000000000000000000000000000000000000000000000000000000000000000100000000000000000000000080000000000804000000000000000000000080000000000000000000000000000000000000000000000000000000010000000000000000000400000000000000000000000000000000010000000000000004000040000000000000000000000000000000000000000000000000000000000000000000000000000000",
      "type": "0x2",
      "transactionHash": "0x1459da3bea5aa46a732c465766cb0e80eb60e02b665bffcfa2079cb95735c161",
      "transactionIndex": "0x2",
      "blockHash": "0xdde45593509f2f21c3d5f9db0bd6d0131982360b3820dcde29c9a644ee4b1ad2",
      "blockNumber": "0x20bb352",
      "gasUsed": "0x275a7",
      "effectiveGasPrice": "0xf433a",
      "from": "0x281a3b958d6068b41c1e0c9c5e0d17830fc78272",
      "to": "0x17fc7698a7065b41007dc270afa4aa85313e2717",
      "contractAddress": null,
      "l1BaseFeeScalar": "0x1db0",
      "l1BlobBaseFee": "0x2",
      "l1BlobBaseFeeScalar": "0xd2730",
      "l1Fee": "0x4cd9",
      "l1GasPrice": "0x18",
      "l1GasUsed": "0x6bf"
    },
    {
      "status": "0x1",
      "cumulativeGasUsed": "0x2079f9",
      "logs": [
        {
          "address": "0x79ed6d4b6d582286944ad6cc18cb7a61ca5c2199",
          "topics": [
            "0x6846707b16f55a3623d38bf118700af63d0784698270a53ce28b116dbaa8b794",
            "0xdce94c8eb8464897012919557c9f859080120d835dae00d44a50723912187b5c"
          ],
          "data": "0x000000000000000000000000000000000000000000000000000000000000002000000000000000000000000000000000000000000000000000000000000000155374616b656420475443202d2043686f69636520310000000000000000000000",
          "blockHash": "0xa9ea6ac41c781330e55289af7c78d7c54cd14f9ec8dca8b24ed909987462fb15",
          "blockNumber": "0x20bb352",
          "blockTimestamp": "0x68ee4250",
          "transactionHash": "0x6c448610700888b703c372977a014af66dcbfbb689f3c34ae62d779009eaed9d",
          "transactionIndex": "0x3",
          "logIndex": "0x3",
          "removed": false
        },
        {
          "address": "0x79ed6d4b6d582286944ad6cc18cb7a61ca5c2199",
          "topics": [
            "0x8fabcb7b4fbdde605303a7339bc80fb6956cd01a42e9cdf2d15d0f2fdd3b06fa",
            "0xdce94c8eb8464897012919557c9f859080120d835dae00d44a50723912187b5c"
          ],
          "data": "0x0000000000000000000000000000000000000000000000000000000000000020000000000000000000000000000000000000000000000000000000000000000af09fa5a94754432d433100000000000000000000000000000000000000000000",
          "blockHash": "0xa9ea6ac41c781330e55289af7c78d7c54cd14f9ec8dca8b24ed909987462fb15",
          "blockNumber": "0x20bb352",
          "blockTimestamp": "0x68ee4250",
          "transactionHash": "0x6c448610700888b703c372977a014af66dcbfbb689f3c34ae62d779009eaed9d",
          "transactionIndex": "0x3",
          "logIndex": "0x4",
          "removed": false
        },
        {
          "address": "0x79ed6d4b6d582286944ad6cc18cb7a61ca5c2199",
          "topics": [
            "0x6bb7ff708619ba0610cba295a58592e0451dee2622938c8755667688daf3529b",
            "0xdce94c8eb8464897012919557c9f859080120d835dae00d44a50723912187b5c"
          ],
          "data": "0x0000000000000000000000000000000000000000000000000000000000000020000000000000000000000000000000000000000000000000000000000000004c646174613a6170706c69636174696f6e2f6a736f6e2c7b226e616d65223a225374616b656420475443202d2043686f6963652031222c2273796d626f6c223a22f09fa5a94754432d4331227d0000000000000000000000000000000000000000",
          "blockHash": "0xa9ea6ac41c781330e55289af7c78d7c54cd14f9ec8dca8b24ed909987462fb15",
          "blockNumber": "0x20bb352",
          "blockTimestamp": "0x68ee4250",
          "transactionHash": "0x6c448610700888b703c372977a014af66dcbfbb689f3c34ae62d779009eaed9d",
          "transactionIndex": "0x3",
          "logIndex": "0x5",
          "removed": false
        }
      ],
      "logsBloom": "0x00000000000000000040000000000000000000000000000000000000000000000000000002080000000000000004000000000000000000000000400000000000010000000000010000000020000000000004000000000000000000000000000000020000000000000000000000000000000000000080000000000000000000000000000000000000000000000000001000000000000000000000000000000000000000000000000000000000000000000000010000000000000000000000000000000000000000000000000080000000000000000000000000000000000000000000000000000000000000000000000000000000000000000000000002000000",
      "type": "0x2",
      "transactionHash": "0x6c448610700888b703c372977a014af66dcbfbb689f3c34ae62d779009eaed9d",
      "transactionIndex": "0x3",
      "blockHash": "0xa9ea6ac41c781330e55289af7c78d7c54cd14f9ec8dca8b24ed909987462fb15",
      "blockNumber": "0x20bb352",
      "gasUsed": "0x29a51",
      "effectiveGasPrice": "0xf433a",
      "from": "0x281a3b958d6068b41c1e0c9c5e0d17830fc78272",
      "to": "0x79ed6d4b6d582286944ad6cc18cb7a61ca5c2199",
      "contractAddress": null,
      "l1BaseFeeScalar": "0x1db0",
      "l1BlobBaseFee": "0x2",
      "l1BlobBaseFeeScalar": "0xd2730",
      "l1Fee": "0x4cd9",
      "l1GasPrice": "0x18",
      "l1GasUsed": "0xa9e"
    },
    {
      "status": "0x1",
      "cumulativeGasUsed": "0x23144a",
      "logs": [
        {
          "address": "0x79ed6d4b6d582286944ad6cc18cb7a61ca5c2199",
          "topics": [
            "0x6846707b16f55a3623d38bf118700af63d0784698270a53ce28b116dbaa8b794",
            "0xe4c0bef36ae49773d3f4f6d9defbaa4975e6443a918451020c1e462f5e7f23d4"
          ],
          "data": "0x000000000000000000000000000000000000000000000000000000000000002000000000000000000000000000000000000000000000000000000000000000155374616b656420475443202d2043686f69636520320000000000000000000000",
          "blockHash": "0xdde45593509f2f21c3d5f9db0bd6d0131982360b3820dcde29c9a644ee4b1ad2",
          "blockNumber": "0x20bb352",
          "blockTimestamp": "0x68ee4250",
          "transactionHash": "0x66d07d0d2ca37103625e6406e2bff696be0469bdd3efcf64d40ef27ae6d79ce6",
          "transactionIndex": "0x4",
          "logIndex": "0x6",
          "removed": false
        },
        {
          "address": "0x79ed6d4b6d582286944ad6cc18cb7a61ca5c2199",
          "topics": [
            "0x8fabcb7b4fbdde605303a7339bc80fb6956cd01a42e9cdf2d15d0f2fdd3b06fa",
            "0xe4c0bef36ae49773d3f4f6d9defbaa4975e6443a918451020c1e462f5e7f23d4"
          ],
          "data": "0x0000000000000000000000000000000000000000000000000000000000000020000000000000000000000000000000000000000000000000000000000000000af09fa5a94754432d433200000000000000000000000000000000000000000000",
          "blockHash": "0xdde45593509f2f21c3d5f9db0bd6d0131982360b3820dcde29c9a644ee4b1ad2",
          "blockNumber": "0x20bb352",
          "blockTimestamp": "0x68ee4250",
          "transactionHash": "0x66d07d0d2ca37103625e6406e2bff696be0469bdd3efcf64d40ef27ae6d79ce6",
          "transactionIndex": "0x4",
          "logIndex": "0x7",
          "removed": false
        },
        {
          "address": "0x79ed6d4b6d582286944ad6cc18cb7a61ca5c2199",
          "topics": [
            "0x6bb7ff708619ba0610cba295a58592e0451dee2622938c8755667688daf3529b",
            "0xe4c0bef36ae49773d3f4f6d9defbaa4975e6443a918451020c1e462f5e7f23d4"
          ],
          "data": "0x0000000000000000000000000000000000000000000000000000000000000020000000000000000000000000000000000000000000000000000000000000004c646174613a6170706c69636174696f6e2f6a736f6e2c7b226e616d65223a225374616b656420475443202d2043686f6963652032222c2273796d626f6c223a22f09fa5a94754432d4332227d0000000000000000000000000000000000000000",
          "blockHash": "0xdde45593509f2f21c3d5f9db0bd6d0131982360b3820dcde29c9a644ee4b1ad2",
          "blockNumber": "0x20bb352",
          "blockTimestamp": "0x68ee4250",
          "transactionHash": "0x66d07d0d2ca37103625e6406e2bff696be0469bdd3efcf64d40ef27ae6d79ce6",
          "transactionIndex": "0x4",
          "logIndex": "0x8",
          "removed": false
        }
      ],
      "logsBloom": "0x00000000000000000040080000000000000000000000000000000000000000000000000002000000000000000004000000000000000000000000400000000000010800000000010000000020000000000004000040000000000000000000000000000000000000000000000000000000000000000080000000000000000000000000000000000000000000000000001000000000000000000000000000000000000000000000000000000000000000000000010000000000000000000000000000000000000000000000000000000000000000000000000000000000000000000000000000000000000000000000000000000000000000000000000002000000",
      "type": "0x2",
      "transactionHash": "0x66d07d0d2ca37103625e6406e2bff696be0469bdd3efcf64d40ef27ae6d79ce6",
      "transactionIndex": "0x4",
      "blockHash": "0xdde45593509f2f21c3d5f9db0bd6d0131982360b3820dcde29c9a644ee4b1ad2",
      "blockNumber": "0x20bb352",
      "gasUsed": "0x29a51",
      "effectiveGasPrice": "0xf433a",
      "from": "0x281a3b958d6068b41c1e0c9c5e0d17830fc78272",
      "to": "0x79ed6d4b6d582286944ad6cc18cb7a61ca5c2199",
      "contractAddress": null,
      "l1BaseFeeScalar": "0x1db0",
      "l1BlobBaseFee": "0x2",
      "l1BlobBaseFeeScalar": "0xd2730",
      "l1Fee": "0x4cd9",
      "l1GasPrice": "0x18",
      "l1GasUsed": "0xaee"
    },
    {
      "status": "0x1",
      "cumulativeGasUsed": "0x25ae9b",
      "logs": [
        {
          "address": "0x79ed6d4b6d582286944ad6cc18cb7a61ca5c2199",
          "topics": [
            "0x6846707b16f55a3623d38bf118700af63d0784698270a53ce28b116dbaa8b794",
            "0x51d9c1f198a2b140c389518786f02d6817d4919f97e49c48553a0010acbae720"
          ],
          "data": "0x000000000000000000000000000000000000000000000000000000000000002000000000000000000000000000000000000000000000000000000000000000155374616b656420475443202d2043686f69636520330000000000000000000000",
          "blockHash": "0xdde45593509f2f21c3d5f9db0bd6d0131982360b3820dcde29c9a644ee4b1ad2",
          "blockNumber": "0x20bb352",
          "blockTimestamp": "0x68ee4250",
          "transactionHash": "0xf65aafff994fff9ed1602c40b71dcfbffd6c5229f0f2a658ebbca9ae6e01c0fe",
          "transactionIndex": "0x5",
          "logIndex": "0x9",
          "removed": false
        },
        {
          "address": "0x79ed6d4b6d582286944ad6cc18cb7a61ca5c2199",
          "topics": [
            "0x8fabcb7b4fbdde605303a7339bc80fb6956cd01a42e9cdf2d15d0f2fdd3b06fa",
            "0x51d9c1f198a2b140c389518786f02d6817d4919f97e49c48553a0010acbae720"
          ],
          "data": "0x0000000000000000000000000000000000000000000000000000000000000020000000000000000000000000000000000000000000000000000000000000000af09fa5a94754432d433300000000000000000000000000000000000000000000",
          "blockHash": "0xdde45593509f2f21c3d5f9db0bd6d0131982360b3820dcde29c9a644ee4b1ad2",
          "blockNumber": "0x20bb352",
          "blockTimestamp": "0x68ee4250",
          "transactionHash": "0xf65aafff994fff9ed1602c40b71dcfbffd6c5229f0f2a658ebbca9ae6e01c0fe",
          "transactionIndex": "0x5",
          "logIndex": "0xa",
          "removed": false
        },
        {
          "address": "0x79ed6d4b6d582286944ad6cc18cb7a61ca5c2199",
          "topics": [
            "0x6bb7ff708619ba0610cba295a58592e0451dee2622938c8755667688daf3529b",
            "0x51d9c1f198a2b140c389518786f02d6817d4919f97e49c48553a0010acbae720"
          ],
          "data": "0x0000000000000000000000000000000000000000000000000000000000000020000000000000000000000000000000000000000000000000000000000000004c646174613a6170706c69636174696f6e2f6a736f6e2c7b226e616d65223a225374616b656420475443202d2043686f6963652033222c2273796d626f6c223a22f09fa5a94754432d4333227d0000000000000000000000000000000000000000",
          "blockHash": "0xdde45593509f2f21c3d5f9db0bd6d0131982360b3820dcde29c9a644ee4b1ad2",
          "blockNumber": "0x20bb352",
          "blockTimestamp": "0x68ee4250",
          "transactionHash": "0xf65aafff994fff9ed1602c40b71dcfbffd6c5229f0f2a658ebbca9ae6e01c0fe",
          "transactionIndex": "0x5",
          "logIndex": "0xb",
          "removed": false
        }
      ],
      "logsBloom": "0x00000000000000000040000200000000000000000000000000000000000000000000000002000000000000000004000000000000000000000000400000000000010000000000010000000020000000000004000000000000000000000000000000000000000000000000000000000000000000000080000000000000000000000000000000000000000000000000001000000000000000000000000000000000000000000000000000000800000000000000010000000000000000000000000000000000000040000000000000000000000000000000000000000000000000000000000000000000000000000000000000000000000000000000000002000000",
      "type": "0x2",
      "transactionHash": "0xf65aafff994fff9ed1602c40b71dcfbffd6c5229f0f2a658ebbca9ae6e01c0fe",
      "transactionIndex": "0x5",
      "blockHash": "0xdde45593509f2f21c3d5f9db0bd6d0131982360b3820dcde29c9a644ee4b1ad2",
      "blockNumber": "0x20bb352",
      "gasUsed": "0x29a51",
      "effectiveGasPrice": "0xf433a",
      "from": "0x281a3b958d6068b41c1e0c9c5e0d17830fc78272",
      "to": "0x79ed6d4b6d582286944ad6cc18cb7a61ca5c2199",
      "contractAddress": null,
      "l1BaseFeeScalar": "0x1db0",
      "l1BlobBaseFee": "0x2",
      "l1BlobBaseFeeScalar": "0xd2730",
      "l1Fee": "0x4cd9",
      "l1GasPrice": "0x18",
      "l1GasUsed": "0xaee"
    },
    {
      "status": "0x1",
      "cumulativeGasUsed": "0x2848ec",
      "logs": [
        {
          "address": "0x79ed6d4b6d582286944ad6cc18cb7a61ca5c2199",
          "topics": [
            "0x6846707b16f55a3623d38bf118700af63d0784698270a53ce28b116dbaa8b794",
            "0xe2d05dc868731ac727d5d10b7d3771102e9fb8bd70eb0ad7b8f98a8c2276eff9"
          ],
          "data": "0x000000000000000000000000000000000000000000000000000000000000002000000000000000000000000000000000000000000000000000000000000000155374616b656420475443202d2043686f69636520340000000000000000000000",
          "blockHash": "0xdde45593509f2f21c3d5f9db0bd6d0131982360b3820dcde29c9a644ee4b1ad2",
          "blockNumber": "0x20bb352",
          "blockTimestamp": "0x68ee4250",
          "transactionHash": "0x624eabf2d2e9f12b3a5fc662644fc8530af87ce3412dc93a2b26543112267be6",
          "transactionIndex": "0x6",
          "logIndex": "0xc",
          "removed": false
        },
        {
          "address": "0x79ed6d4b6d582286944ad6cc18cb7a61ca5c2199",
          "topics": [
            "0x8fabcb7b4fbdde605303a7339bc80fb6956cd01a42e9cdf2d15d0f2fdd3b06fa",
            "0xe2d05dc868731ac727d5d10b7d3771102e9fb8bd70eb0ad7b8f98a8c2276eff9"
          ],
          "data": "0x0000000000000000000000000000000000000000000000000000000000000020000000000000000000000000000000000000000000000000000000000000000af09fa5a94754432d433400000000000000000000000000000000000000000000",
          "blockHash": "0xdde45593509f2f21c3d5f9db0bd6d0131982360b3820dcde29c9a644ee4b1ad2",
          "blockNumber": "0x20bb352",
          "blockTimestamp": "0x68ee4250",
          "transactionHash": "0x624eabf2d2e9f12b3a5fc662644fc8530af87ce3412dc93a2b26543112267be6",
          "transactionIndex": "0x6",
          "logIndex": "0xd",
          "removed": false
        },
        {
          "address": "0x79ed6d4b6d582286944ad6cc18cb7a61ca5c2199",
          "topics": [
            "0x6bb7ff708619ba0610cba295a58592e0451dee2622938c8755667688daf3529b",
            "0xe2d05dc868731ac727d5d10b7d3771102e9fb8bd70eb0ad7b8f98a8c2276eff9"
          ],
          "data": "0x0000000000000000000000000000000000000000000000000000000000000020000000000000000000000000000000000000000000000000000000000000004c646174613a6170706c69636174696f6e2f6a736f6e2c7b226e616d65223a225374616b656420475443202d2043686f6963652034222c2273796d626f6c223a22f09fa5a94754432d4334227d0000000000000000000000000000000000000000",
          "blockHash": "0xdde45593509f2f21c3d5f9db0bd6d0131982360b3820dcde29c9a644ee4b1ad2",
          "blockNumber": "0x20bb352",
          "blockTimestamp": "0x68ee4250",
          "transactionHash": "0x624eabf2d2e9f12b3a5fc662644fc8530af87ce3412dc93a2b26543112267be6",
          "transactionIndex": "0x6",
          "logIndex": "0xe",
          "removed": false
        }
      ],
      "logsBloom": "0x00000000000000000040000000000000000000000000000000000000000000000000000002000000000000000004000000000000000000000000400000000000010000000000010800000020000000000004000000000000000000000000000000000000000000000000000000000000000000000080000000020000000000000000000000000000000000000000001000000000000000002000000000000000000000000000000000000000000000000000010000000000000000000000000000000000000000000000000000000000000000000000000000000000000000000000000000000000000000000000000000000000000000000000000002000000",
      "type": "0x2",
      "transactionHash": "0x624eabf2d2e9f12b3a5fc662644fc8530af87ce3412dc93a2b26543112267be6",
      "transactionIndex": "0x6",
      "blockHash": "0xdde45593509f2f21c3d5f9db0bd6d0131982360b3820dcde29c9a644ee4b1ad2",
      "blockNumber": "0x20bb352",
      "gasUsed": "0x29a51",
      "effectiveGasPrice": "0xf433a",
      "from": "0x281a3b958d6068b41c1e0c9c5e0d17830fc78272",
      "to": "0x79ed6d4b6d582286944ad6cc18cb7a61ca5c2199",
      "contractAddress": null,
      "l1BaseFeeScalar": "0x1db0",
      "l1BlobBaseFee": "0x2",
      "l1BlobBaseFeeScalar": "0xd2730",
      "l1Fee": "0x4cd9",
      "l1GasPrice": "0x18",
      "l1GasUsed": "0xaee"
    },
    {
      "status": "0x1",
      "cumulativeGasUsed": "0x2ae33d",
      "logs": [
        {
          "address": "0x79ed6d4b6d582286944ad6cc18cb7a61ca5c2199",
          "topics": [
            "0x6846707b16f55a3623d38bf118700af63d0784698270a53ce28b116dbaa8b794",
            "0xfb45e9fd88be105047cf5832ad68e87c2ee542babc208e3d2d6c77a7ec74984f"
          ],
          "data": "0x000000000000000000000000000000000000000000000000000000000000002000000000000000000000000000000000000000000000000000000000000000155374616b656420475443202d2043686f69636520350000000000000000000000",
          "blockHash": "0xdde45593509f2f21c3d5f9db0bd6d0131982360b3820dcde29c9a644ee4b1ad2",
          "blockNumber": "0x20bb352",
          "blockTimestamp": "0x68ee4250",
          "transactionHash": "0x0d2690b5c6fe3fd415f6972e6378402559f451f26d2c1b03a9794ead80194e02",
          "transactionIndex": "0x7",
          "logIndex": "0xf",
          "removed": false
        },
        {
          "address": "0x79ed6d4b6d582286944ad6cc18cb7a61ca5c2199",
          "topics": [
            "0x8fabcb7b4fbdde605303a7339bc80fb6956cd01a42e9cdf2d15d0f2fdd3b06fa",
            "0xfb45e9fd88be105047cf5832ad68e87c2ee542babc208e3d2d6c77a7ec74984f"
          ],
          "data": "0x0000000000000000000000000000000000000000000000000000000000000020000000000000000000000000000000000000000000000000000000000000000af09fa5a94754432d433500000000000000000000000000000000000000000000",
          "blockHash": "0xdde45593509f2f21c3d5f9db0bd6d0131982360b3820dcde29c9a644ee4b1ad2",
          "blockNumber": "0x20bb352",
          "blockTimestamp": "0x68ee4250",
          "transactionHash": "0x0d2690b5c6fe3fd415f6972e6378402559f451f26d2c1b03a9794ead80194e02",
          "transactionIndex": "0x7",
          "logIndex": "0x10",
          "removed": false
        },
        {
          "address": "0x79ed6d4b6d582286944ad6cc18cb7a61ca5c2199",
          "topics": [
            "0x6bb7ff708619ba0610cba295a58592e0451dee2622938c8755667688daf3529b",
            "0xfb45e9fd88be105047cf5832ad68e87c2ee542babc208e3d2d6c77a7ec74984f"
          ],
          "data": "0x0000000000000000000000000000000000000000000000000000000000000020000000000000000000000000000000000000000000000000000000000000004c646174613a6170706c69636174696f6e2f6a736f6e2c7b226e616d65223a225374616b656420475443202d2043686f6963652035222c2273796d626f6c223a22f09fa5a94754432d4335227d0000000000000000000000000000000000000000",
          "blockHash": "0xdde45593509f2f21c3d5f9db0bd6d0131982360b3820dcde29c9a644ee4b1ad2",
          "blockNumber": "0x20bb352",
          "blockTimestamp": "0x68ee4250",
          "transactionHash": "0x0d2690b5c6fe3fd415f6972e6378402559f451f26d2c1b03a9794ead80194e02",
          "transactionIndex": "0x7",
          "logIndex": "0x11",
          "removed": false
        }
      ],
      "logsBloom": "0x00000000000000000040000000000002000000000000000000000000000000000000000002000000000000000004000000000000000000000000400000000000010000000000010000000020000000000004000080000000000000000000000000000000000000000000000000000000000000000080000000000000000000000000000000000000000000000000001000000000000000000000000000000000000000000000000000000000000000000000010000000000008000000000000000000000000000000000000000000000000000000000000000000000000000000000000000000000000000000000000000000000000000000000000002000000",
      "type": "0x2",
      "transactionHash": "0x0d2690b5c6fe3fd415f6972e6378402559f451f26d2c1b03a9794ead80194e02",
      "transactionIndex": "0x7",
      "blockHash": "0xdde45593509f2f21c3d5f9db0bd6d0131982360b3820dcde29c9a644ee4b1ad2",
      "blockNumber": "0x20bb352",
      "gasUsed": "0x29a51",
      "effectiveGasPrice": "0xf433a",
      "from": "0x281a3b958d6068b41c1e0c9c5e0d17830fc78272",
      "to": "0x79ed6d4b6d582286944ad6cc18cb7a61ca5c2199",
      "contractAddress": null,
      "l1BaseFeeScalar": "0x1db0",
      "l1BlobBaseFee": "0x2",
      "l1BlobBaseFeeScalar": "0xd2730",
      "l1Fee": "0x4cd9",
      "l1GasPrice": "0x18",
      "l1GasUsed": "0xaee"
    },
    {
      "status": "0x1",
      "cumulativeGasUsed": "0x2d7d8e",
      "logs": [
        {
          "address": "0x79ed6d4b6d582286944ad6cc18cb7a61ca5c2199",
          "topics": [
            "0x6846707b16f55a3623d38bf118700af63d0784698270a53ce28b116dbaa8b794",
            "0x3ac9ee07a65b1db0a56cf779e5bc24f4f35c1b7147bb9c9593ab305288d1944d"
          ],
          "data": "0x000000000000000000000000000000000000000000000000000000000000002000000000000000000000000000000000000000000000000000000000000000155374616b656420475443202d2043686f69636520360000000000000000000000",
          "blockHash": "0xdde45593509f2f21c3d5f9db0bd6d0131982360b3820dcde29c9a644ee4b1ad2",
          "blockNumber": "0x20bb352",
          "blockTimestamp": "0x68ee4250",
          "transactionHash": "0xd4040d433ef54345f08215ffd74a9083c803c9595af5918f79ccd097535d4408",
          "transactionIndex": "0x8",
          "logIndex": "0x12",
          "removed": false
        },
        {
          "address": "0x79ed6d4b6d582286944ad6cc18cb7a61ca5c2199",
          "topics": [
            "0x8fabcb7b4fbdde605303a7339bc80fb6956cd01a42e9cdf2d15d0f2fdd3b06fa",
            "0x3ac9ee07a65b1db0a56cf779e5bc24f4f35c1b7147bb9c9593ab305288d1944d"
          ],
          "data": "0x0000000000000000000000000000000000000000000000000000000000000020000000000000000000000000000000000000000000000000000000000000000af09fa5a94754432d433600000000000000000000000000000000000000000000",
          "blockHash": "0xdde45593509f2f21c3d5f9db0bd6d0131982360b3820dcde29c9a644ee4b1ad2",
          "blockNumber": "0x20bb352",
          "blockTimestamp": "0x68ee4250",
          "transactionHash": "0xd4040d433ef54345f08215ffd74a9083c803c9595af5918f79ccd097535d4408",
          "transactionIndex": "0x8",
          "logIndex": "0x13",
          "removed": false
        },
        {
          "address": "0x79ed6d4b6d582286944ad6cc18cb7a61ca5c2199",
          "topics": [
            "0x6bb7ff708619ba0610cba295a58592e0451dee2622938c8755667688daf3529b",
            "0x3ac9ee07a65b1db0a56cf779e5bc24f4f35c1b7147bb9c9593ab305288d1944d"
          ],
          "data": "0x0000000000000000000000000000000000000000000000000000000000000020000000000000000000000000000000000000000000000000000000000000004c646174613a6170706c69636174696f6e2f6a736f6e2c7b226e616d65223a225374616b656420475443202d2043686f6963652036222c2273796d626f6c223a22f09fa5a94754432d4336227d0000000000000000000000000000000000000000",
          "blockHash": "0xdde45593509f2f21c3d5f9db0bd6d0131982360b3820dcde29c9a644ee4b1ad2",
          "blockNumber": "0x20bb352",
          "blockTimestamp": "0x68ee4250",
          "transactionHash": "0xd4040d433ef54345f08215ffd74a9083c803c9595af5918f79ccd097535d4408",
          "transactionIndex": "0x8",
          "logIndex": "0x14",
          "removed": false
        }
      ],
      "logsBloom": "0x00000000000000000040000000000000000000000000000000000000000000000000000002000000000000000004000000000000000000000000400000000000010000000000010000000020000000000004000000000000000000000000000000000000000000000000000000000000000000000080000000000000000000000000000000000000000000000000001000000000000000000000000000000000000000000000000000000000000000000000011000000000000000000000000000000000000000000000000100000000000000000000000000000000000000000000000000000000000000000000000000000000000000000000000002000008",
      "type": "0x2",
      "transactionHash": "0xd4040d433ef54345f08215ffd74a9083c803c9595af5918f79ccd097535d4408",
      "transactionIndex": "0x8",
      "blockHash": "0xdde45593509f2f21c3d5f9db0bd6d0131982360b3820dcde29c9a644ee4b1ad2",
      "blockNumber": "0x20bb352",
      "gasUsed": "0x29a51",
      "effectiveGasPrice": "0xf433a",
      "from": "0x281a3b958d6068b41c1e0c9c5e0d17830fc78272",
      "to": "0x79ed6d4b6d582286944ad6cc18cb7a61ca5c2199",
      "contractAddress": null,
      "l1BaseFeeScalar": "0x1db0",
      "l1BlobBaseFee": "0x2",
      "l1BlobBaseFeeScalar": "0xd2730",
      "l1Fee": "0x4cd9",
      "l1GasPrice": "0x18",
      "l1GasUsed": "0xaee"
    },
    {
      "status": "0x1",
      "cumulativeGasUsed": "0x3344bb",
      "logs": [],
      "logsBloom": "0x00000000000000000000000000000000000000000000000000000000000000000000000000000000000000000000000000000000000000000000000000000000000000000000000000000000000000000000000000000000000000000000000000000000000000000000000000000000000000000000000000000000000000000000000000000000000000000000000000000000000000000000000000000000000000000000000000000000000000000000000000000000000000000000000000000000000000000000000000000000000000000000000000000000000000000000000000000000000000000000000000000000000000000000000000000000",
      "type": "0x2",
      "transactionHash": "0xf9876f2614e53f3f2902ef3dfbc0083b10c40d1dffb58279f444c73bf95e0fc4",
      "transactionIndex": "0x9",
      "blockHash": "0xdde45593509f2f21c3d5f9db0bd6d0131982360b3820dcde29c9a644ee4b1ad2",
      "blockNumber": "0x20bb352",
      "gasUsed": "0x5c72d",
      "effectiveGasPrice": "0xf433a",
      "from": "0x281a3b958d6068b41c1e0c9c5e0d17830fc78272",
      "to": null,
      "contractAddress": "0xeb5ed03c030448270d5671cd4ae79ad124765f26",
      "l1BaseFeeScalar": "0x1db0",
      "l1BlobBaseFee": "0x2",
      "l1BlobBaseFeeScalar": "0xd2730",
      "l1Fee": "0x4cd9",
      "l1GasPrice": "0x18",
      "l1GasUsed": "0x405c"
    }
  ],
  "libraries": [],
  "pending": [],
  "returns": {},
  "timestamp": 1760445059756,
  "chain": 11155420,
  "commit": "1214ab0"
}